:100000000C942A000C94A2080C94CB080C94F408CD
:100010000C9447000C94C00B0C9447000C944700C0
:100020000C9447000C9447000C94CB0E0C94F90EE2
:100030000C9447000C9447000C9447000C94470024
:100040000C9447000C9447000C9447000C94470014
:100050000C94470011241FBECFE5D8E0DEBFCDBF12
:1000600010E0A0E6B0E0ECEDF3E202C005900D92E6
:10007000AC3BB107D9F720E0ACEBB0E001C01D927A
:10008000AC3DB207E1F70E9470060C94EC110C94A1
:1000900000000E941D0964E082E00E941B030E9490
:1000A000CA040E94EC0342E063E081E00E9417066C
:1000B00080E690E00E942D030895CF93DF931F9276
:1000C000CDB7DEB78FEF8983CE0101960E940B0476
:1000D00089818233E9F48EE10E94A00360E080E62A
:1000E00090E00E94670360E084E690E00E9467036E
:1000F00060E080E00E945F0588E690E00E94730562
:1001000004C0CE0101960E940B0489818133C9F796
:100110000F90DF91CF910895CF93DF9300D0CDB7AB
:10012000DEB78FEF898304C0CE0101960E940B04D5
:1001300089818133C9F760E070E48CE995E40E941D
:10014000950E60E080E00E945F0588E790E00E94E5
:1001500073052BC060E081E00E945F058091BC00C8
:10016000811105C086E890E00E94730504C08CE808
:1001700090E00E947305AE014E5F5F4F64E082E045
:100180000E942A038A81811110C08091BC00809551
:100190008093BC0007C0AE014E5F5F4F64E082E019
:1001A0000E942A038A818823B1F38091D600882394
:1001B00089F20E9452058EE10E94A00360E080E671
:1001C00090E00E94670360E084E690E00E9467038D
:1001D00060E080E00E945F0588E690E00E94730581
:1001E00060E070E08AEF94E40E943B0C0E945906A4
:1001F0008C0160E081E00E945F0581E990E00E944F
:10020000730567E081E00E945F05B80180E090E03F
:100210000E949C100E9489050E9459068C0167E08B
:1002200081E00E945F05B80180E090E00E949C1090
:100230000E9489050734110508F46BC060E070E482
:100240008CE995E40E94950E2CC08EE10E94A003DB
:1002500061E080E690E00E94670361E084E690E060
:100260000E9467030E9459068C0166E080E00E94AC
:100270005F058FE990E00E9473056EE080E00E94C8
:100280005F0586E40E94060567E081E00E945F0545
:10029000B80180E090E00E949C100E9489050E94B5
:1002A0005D008091D600811130C00734110568F6D9
:1002B0002CC082E30E94A00361E080E690E00E94EF
:1002C000670361E084E690E00E9467030E9459069C
:1002D0008C0166E080E00E945F0582EA90E00E9467
:1002E00073056EE080E00E945F0586E40E940605CB
:1002F00067E081E00E945F05B80180E090E00E9425
:100300009C100E9489050E945D000734110588F643
:1003100083CFC8014F97889768F58EE10E94A003AC
:1003200061E080E690E00E94670361E084E690E08F
:100330000E9467030E9459068C0166E080E00E94DB
:100340005F058FE990E00E9473056EE080E00E94F7
:100350005F0586E40E94060567E081E00E945F0574
:10036000B80180E090E00E949C100E9489050E94E4
:100370005D0052CFC80145970A9708F0BFC08EE1D3
:100380000E94A00360E080E690E00E94670360E0C6
:1003900084E690E00E9467030E9459068C0166E0A3
:1003A00080E00E945F0585EA90E00E9473056EE0A0
:1003B00080E00E945F0583E50E9406052CC08EE167
:1003C0000E94A00362E080E690E00E94670362E082
:1003D00084E690E00E9467030E9459068C0166E063
:1003E00080E00E945F058FE990E00E9473056EE057
:1003F00080E00E945F0582E40E94060567E081E0DC
:100400000E945F05B80180E090E00E949C100E946D
:1004100089050E945D000F31110588F28091BC00B2
:1004200081111DC08EE10E94A00362E080E690E091
:100430000E94670361E084E690E00E94670366E043
:1004400080E00E945F058FE990E00E9473056EE0F6
:1004500080E00E945F0582E50E9406051CC08EE1D7
:100460000E94A00361E080E690E00E94670362E0E2
:1004700084E690E00E94670366E080E00E945F05EA
:100480008FE990E00E9473056EE080E00E945F05B6
:1004900082E50E94060560E070E086E194E40E9437
:1004A0003B0C0E9459068C0167E081E00E945F05C9
:1004B000B80180E090E00E949C100E9489058EE1C6
:1004C0000E94A00360E080E690E00E94670360E085
:1004D00084E690E00E94670366E080E00E945F058A
:1004E00085EA90E00E9473056EE080E00E945F055F
:1004F00083E50E9406050E945D008ECE0531110540
:1005000008F08ACE8EE10E94A00360E080E690E0D1
:100510000E94670360E084E690E00E9467030E9407
:1005200059068C0166E080E00E945F0585EA90E054
:100530000E9473056EE080E00E945F0583E50E94E3
:10054000060567E081E00E945F05B80180E090E069
:100550000E949C100E948905F12C3BC00E945D0006
:100560000E9459068C01F3948091BC00811116C041
:100570008EE10E94A00362E080E690E00E946703A3
:1005800061E084E690E00E94670360E081E00E9401
:100590005F0588EA90E00E94730515C08EE10E9415
:1005A000A00361E080E690E00E94670362E084E6D9
:1005B00090E00E94670360E081E00E945F0588EAA6
:1005C00090E00E94730560E070E086E194E40E9490
:1005D0003B0C83E08F1520F00531110508F4BECFE8
:1005E00084E0F81225C021C08EE10E94A00360E0E3
:1005F00080E690E00E94670360E084E690E00E945D
:1006000067030E9459068C0166E080E00E945F0546
:1006100085EA90E00E9473056EE080E00E945F052D
:1006200083E50E9406050E945D0005311105E0F298
:100630000E945D00F1CDCF93DF93C82FD62F40E00D
:100640000E94770641E06D2F8C2F0E94EC06DF910F
:10065000CF9108950E9461070895EF92FF921F9332
:10066000CF93DF93009701F580E02BC0C12FD0E03E
:10067000CC0FDD1FCC0FDD1FCE0DDF1D698141E0EA
:1006800088810E9477066B8141E08A810E9477060B
:10069000698140E088810E94EC066B8140E08A819C
:1006A0000E94EC061F5F02C07C0110E01230F0F2E5
:1006B0002DEC3CEC4CE45EE364E083E00E94D10A64
:1006C00081E0DF91CF911F91FF90EF900895CF933C
:1006D000DF93009769F1633068F5EC01613081F0D8
:1006E00018F06230C9F028C0698140E088810E941A
:1006F000EC066B8140E08A810E94EC0681E01DC01F
:10070000698141E088810E94EC066B8140E08A812A
:100710000E94EC0681E011C0698140E088810E945E
:10072000EC066B8141E08A810E94EC0681E005C005
:1007300080E003C080E001C081E0DF91CF910895A7
:10074000853620F40E94600B81E0089580E00895D2
:100750000F931F93CF93DF93CDB7DEB727970FB6D5
:10076000F894DEBF0FBECDBF8C01FC0180818A836F
:1007700019821B82CE0101960E94380FF801618117
:1007800082810E940E08F80182818093BD00279625
:100790000FB6F894DEBF0FBECDBFDF91CF911F9192
:1007A0000F910895BC018091BD000E948F080895AB
:1007B000833031F463E08091BD000E940E080895FB
:1007C00062E08091BD000E940E0808950E94830F90
:1007D00008950E94860F089541E062E082E00E9441
:1007E000770640E065E082E00E94770640E066E040
:1007F00082E00E94770641E062E082E00E94EC061F
:1008000041E065E082E00E94EC0641E066E082E0C3
:100810000E94EC060895AF92BF92CF92DF92EF92C2
:10082000FF920F931F93CF93DF931F92CDB7DEB745
:10083000009709F456C07C018FEFF701808300E038
:10084000C12C4AC040E062E082E00E94EC0610E069
:1008500038C0A12EB12CF501E854FF4FD080AE0175
:100860004F5F5F4F6D2D82E00E946107898181118A
:1008700027C060E070E080EA91E40E943B0CAE018A
:100880004F5F5F4F6D2D82E00E94610707C0AE0190
:100890004F5F5F4F6D2D82E00E9461078981882341
:1008A000B1F3802F90E0880F991F86549F4FFC0171
:1008B000EA0DFB1D8081F7018083CC24C39403C023
:1008C0001F5F123030F241E062E082E00E94EC06ED
:1008D000F1E0CF1621F00F5F002309F4B3CF81E0E0
:1008E00001C080E00F90DF91CF911F910F91FF9099
:1008F000EF90DF90CF90BF90AF900895CF93C82F27
:10090000682F80E00E94C20740E061E080E00E9422
:10091000EC0640E062E080E00E94EC0641E063E02B
:1009200080E00E94EC0660E070E080E89FE30E94B7
:100930003B0C40E063E080E00E94EC0660E070E089
:1009400080E090E40E943B0C6C2F80E00E94E20764
:1009500040E061E080E00E94EC0640E062E080E080
:100960000E94EC0641E063E080E00E94EC0660E05B
:1009700070E080E89FE30E943B0C40E063E080E091
:100980000E94EC0660E070E080E490E40E943B0C82
:10099000CF91089541E067E080E00E94770641E052
:1009A00066E080E00E94770641E065E080E00E941A
:1009B000770641E064E080E00E94770641E063E072
:1009C00080E00E94770641E062E080E00E947706C6
:1009D00041E061E080E00E94770660E070E080EA3C
:1009E00091E40E943B0C82E00E947E0488E20E9417
:1009F0007E048CE00E947E0486E00E947E0481E0FA
:100A00000E947E0480E80E947E040895CF93C82F40
:100A1000682F80E00E94C20741E061E080E00E9410
:100A2000EC0640E062E080E00E94EC0641E063E01A
:100A300080E00E94EC0660E070E080E89FE30E94A6
:100A40003B0C40E063E080E00E94EC0660E070E078
:100A500080E090E40E943B0C6C2F80E00E94E20753
:100A600041E061E080E00E94EC0640E062E080E06E
:100A70000E94EC0641E063E080E00E94EC0660E04A
:100A800070E080E89FE30E943B0C40E063E080E080
:100A90000E94EC0660E070E080E090E40E943B0C75
:100AA000CF91089581E00E947E0460E070E080E0D4
:100AB00090E40E943B0C80E80E947E04089581111E
:100AC00008C0603130F4862F8F7080680E947E04E9
:100AD0000895813039F4603128F4862F8F70806C4E
:100AE0000E947E0408950F931F93CF93DF938C0190
:100AF000C0E0D0E003C00E9406052196F801EC0F8B
:100B0000FD1F80818111F7CFDF91CF911F910F9150
:100B100008950F931F93CF93DF93CDB7DEB72A9736
:100B20000FB6F894DEBF0FBECDBF20E030E040E24C
:100B300051E40E944E110E946D1010E000E014C0BC
:100B40002AE030E040E050E00E94BB11E1E0F0E03C
:100B5000EC0FFD1FE10FF11D605D6083622F732FAD
:100B6000842F952F0F5F1F5F61157105810591051A
:100B700039F78FEF810F90E012C0A1E0B0E0AC0F29
:100B8000BD1FA80FB11D2C91E1E0F0E0EC0FFD1F9F
:100B9000E90FF11D30813C93208381509F5F9817AE
:100BA00060F3802F90E0FC01319721E030E02C0FC2
:100BB0003D1FE20FF31F2081A1E0B0E0AC0FBD1F8D
:100BC000A80FB91F2C932EE220830196E1E0F0E0FC
:100BD000EC0FFD1FE80FF91F1082CE0101960E9455
:100BE00073052A960FB6F894DEBF0FBECDBFDF9116
:100BF000CF911F910F9108958091C2008F5F8093D4
:100C0000C200813031F40E94E90382E00E94D803DF
:100C10000895823059F40E94E6039093C1008093B6
:100C2000C0000E94E90383E00E94D80308950F9357
:100C30001F93CF93DF9300D01F92CDB7DEB7182F4D
:100C4000062F82E0898383E08A834B831093BF0061
:100C50006093BE00CE0101960E94A8038CEF95E040
:100C60000E94D20341E0602F812F0E94770640E06E
:100C7000602F812F0E94EC060F900F900F90DF9154
:100C8000CF911F910F91089541E06091BE00809136
:100C9000BF000E94EC0660E070E080E89FE30E94E5
:100CA0003B0C40E06091BE008091BF000E94EC06CA
:100CB00008950E9444068091C2008230E1F720919D
:100CC000C0003091C100AFE9B6E40E94DD1110927E
:100CD000C200929582958F7089279F708927089509
:100CE0000E9449000E948C0080E090E008958130CD
:100CF00011F130F08230D1F1833009F452C00895FF
:100D0000413059F42AB381E090E002C0880F991F66
:100D10006A95E2F7822B8ABB089541115CC02AB321
:100D200081E090E002C0880F991F6A95E2F78095F4
:100D300082238ABB0895413059F427B381E090E0C3
:100D400002C0880F991F6A95E2F7822B87BB08952E
:100D5000411141C027B381E090E002C0880F991F84
:100D60006A95E2F78095822387BB0895413059F454
:100D700024B381E090E002C0880F991F6A95E2F7E2
:100D8000822B84BB0895411126C024B381E090E0FA
:100D900002C0880F991F6A95E2F78095822384BB71
:100DA0000895413059F421B381E090E002C0880FEA
:100DB000991F6A95E2F7822B81BB089541110BC000
:100DC00021B381E090E002C0880F991F6A95E2F795
:100DD0008095822381BB0895813011F130F08230FB
:100DE000D1F1833009F452C00895413059F42BB346
:100DF00081E090E002C0880F991F6A95E2F7822B8C
:100E00008BBB089541115CC02BB381E090E002C020
:100E1000880F991F6A95E2F7809582238BBB08950E
:100E2000413059F428B381E090E002C0880F991F47
:100E30006A95E2F7822B88BB0895411141C028B31F
:100E400081E090E002C0880F991F6A95E2F78095D3
:100E5000822388BB0895413059F425B381E090E0A6
:100E600002C0880F991F6A95E2F7822B85BB08950F
:100E7000411126C025B381E090E002C0880F991F80
:100E80006A95E2F78095822385BB0895413059F435
:100E900022B381E090E002C0880F991F6A95E2F7C3
:100EA000822B82BB089541110BC022B381E090E0F8
:100EB00002C0880F991F6A95E2F78095822382BB52
:100EC00008958130E9F030F0823081F1833009F407
:100ED00043C0089579B381E090E09C01062E02C0E2
:100EE000220F331F0A94E2F7872F90E08223932387
:100EF00002C0959587956A95E2F7FA018083089577
:100F000076B381E090E09C01062E02C0220F331FD1
:100F10000A94E2F7872F90E08223932302C09595ED
:100F200087956A95E2F7FA018083089573B381E0AB
:100F300090E09C01062E02C0220F331F0A94E2F7B4
:100F4000872F90E08223932302C0959587956A9519
:100F5000E2F7FA018083089570B381E090E09C018C
:100F6000062E02C0220F331F0A94E2F7872F90E06B
:100F70008223932302C0959587956A95E2F7FA013B
:100F800080830895813061F028F0823079F08330D9
:100F900099F008958BB38F70607F682B6BBB0895B9
:100FA00088B38F70607F682B68BB089585B38F709E
:100FB000607F682B65BB089582B38F70607F682B5C
:100FC00062BB0895813079F028F08230A9F0833037
:100FD000E1F008958BB390E1699FB00111248F7007
:100FE000682B6BBB089588B390E1699FB001112411
:100FF0008F70682B68BB089585B390E1699FB0013D
:1010000011248F70682B65BB089582B390E1699FAE
:10101000B00111248F70682B62BB0895833008F0F3
:1010200072C0643008F071C0813081F120F08230EC
:1010300009F457C06CC08BB780648BBF613071F00E
:1010400028F0623099F06330C9F063C085B78E7FB5
:1010500085BF85B78D7F85BF81E0089585B78160A5
:1010600085BF85B78D7F85BF81E0089585B78E7F69
:1010700085BF85B7826085BF81E0089585B78160AF
:1010800085BF85B7826085BF81E008958BB7806892
:101090008BBF613071F028F0623099F06330C9F095
:1010A0003AC085B78B7F85BF85B7877F85BF81E0D5
:1010B000089585B7846085BF85B7877F85BF81E048
:1010C000089585B78B7F85BF85B7886085BF81E030
:1010D000089585B7846085BF85B7886085BF81E046
:1010E00008958BB780628BBF623019F0633031F0A6
:1010F00014C084B78F7B84BF81E0089584B7806477
:1011000084BF81E0089580E0089580E0089581E043
:10111000089581E0089581E0089581E00895833085
:1011200068F46115710561F0E82FF0E0EE0FFF1F24
:10113000ED53FF4F7183608381E0089580E008954F
:1011400080E008951F920F920FB60F9211242F93F3
:101150003F934F935F936F937F938F939F93AF933F
:10116000BF93EF93FF93E091C300F091C4003097D9
:1011700009F00995FF91EF91BF91AF919F918F91E8
:101180007F916F915F914F913F912F910F900FBE83
:101190000F901F9018951F920F920FB60F92112467
:1011A0002F933F934F935F936F937F938F939F936F
:1011B000AF93BF93EF93FF93E091C500F091C6000A
:1011C000309709F00995FF91EF91BF91AF919F91F1
:1011D0008F917F916F915F914F913F912F910F90E0
:1011E0000FBE0F901F9018951F920F920FB60F927F
:1011F00011242F933F934F935F936F937F938F931C
:101200009F93AF93BF93EF93FF93E091C700F0914B
:10121000C800309709F00995FF91EF91BF91AF9108
:101220009F918F917F916F915F914F913F912F91FE
:101230000F900FBE0F901F9018958FB780688FBFCB
:101240000895CF92DF92EF92FF92CF93DF936B01DD
:101250007C01EA012FE632E143E052E40E94F60FFE
:1012600018160CF476C0209709F475C02FE632E109
:1012700043E05DE3C701B6010E94F60F18162CF09B
:1012800081E090E09983888367C02FE632E143E8EC
:101290005EE3C701B6010E94F60F181634F088E02D
:1012A00090E09983888381E057C02FE632E143E8DC
:1012B0005FE3C701B6010E94F60F181634F080E212
:1012C00090E09983888381E047C02FE632E143E0D4
:1012D00050E4C701B6010E94F60F181634F080E4FE
:1012E00090E09983888381E037C02FE632E143E8BC
:1012F00050E4C701B6010E94F60F181634F080E8DA
:1013000090E09983888381E027C02FE632E143E0B3
:1013100051E4C701B6010E94F60F181634F080E0C0
:1013200091E09983888381E017C02FE632E143E0A2
:1013300052E4C701B6010E94F60F181634F080E09F
:1013400094E09983888381E007C01982188281E044
:1013500003C080E001C080E0DF91CF91FF90EF906B
:10136000DF90CF900895CF93DF938130E4E09E0724
:1013700008F09CC02115310509F49AC0E9019A01D1
:10138000AB018034910509F44DC050F488309105CB
:1013900039F180329105A9F1019709F08BC00FC096
:1013A000811561E0960709F45FC08115E4E09E07AE
:1013B00009F46BC08038910509F07CC044C06FE629
:1013C00072E183E09DE30E94890F2FE632E143E062
:1013D00059E30E94FB0F0E946D10688381E06BC08F
:1013E0006FE672E183E89EE30E94890F2FE632E107
:1013F00043E85AE30E94FB0F0E946D10688381E06E
:101400005AC06FE672E183E89FE30E94890F2FE6DE
:1014100032E143E85BE30E94FB0F0E946D1068839A
:1014200081E049C06FE672E183E090E40E94890F99
:101430002FE632E143E05CE30E94FB0F0E946D1057
:10144000688381E038C06FE672E183E890E40E942F
:10145000890F2FE632E143E85CE30E94FB0F0E9414
:101460006D10688381E027C06FE672E183E091E44C
:101470000E94890F2FE632E143E05DE30E94FB0FFB
:101480000E946D10688381E016C06FE672E183E010
:1014900092E40E94890F2FE632E143E05EE30E946E
:1014A000FB0F0E946D10688381E005C080E003C0DF
:1014B00080E001C081E0DF91CF910895813024E088
:1014C000920708F06AC080349105D9F150F4883051
:1014D000910509F18032910549F1019709F05FC04A
:1014E0000FC0811521E0920709F441C0811524E065
:1014F000920709F447C08038910509F050C02CC00C
:1015000085B5816085BD85B58D7F85BD85B58B7FB2
:1015100085BD81E0089585B58E7F85BD85B58260E6
:1015200085BD85B58B7F85BD81E0089585B58160DA
:1015300085BD85B5826085BD85B58B7F85BD81E024
:10154000089585B58E7F85BD85B58D7F85BD85B5B3
:10155000846085BD81E0089585B5816085BD85B5D0
:101560008D7F85BD85B5846085BD81E0089585B595
:101570008E7F85BD85B5826085BD85B5846085BD5E
:1015800081E0089585B5816085BD85B5826085BDA2
:1015900085B5846085BD81E0089580E0089581E08F
:1015A0000895843008F088C0683008F087C08093C0
:1015B000D5006093D400813091F028F08230D9F0CA
:1015C000833029F12FC09AB3E1E0F0E0062E02C08B
:1015D000EE0FFF1F0A94E2F7E92BEABB23C097B393
:1015E000E1E0F0E0062E02C0EE0FFF1F0A94E2F7E2
:1015F000E92BE7BB17C094B3E1E0F0E0062E02C090
:10160000EE0FFF1F0A94E2F7E92BE4BB0BC091B386
:10161000E1E0F0E0062E02C0EE0FFF1F0A94E2F7B1
:10162000E92BE1BB813091F028F08230D9F0833092
:1016300029F12FC07BB381E090E002C0880F991F91
:101640006A95E2F7809587238BBB23C078B381E04E
:1016500090E002C0880F991F6A95E2F78095872372
:1016600088BB17C075B381E090E002C0880F991F56
:101670006A95E2F78095872385BB0BC072B381E042
:1016800090E002C0880F991F6A95E2F78095872342
:1016900082BB60E070E080E89FE30E94FB0F6093F4
:1016A000CA007093CB008093CC009093CD0089B793
:1016B000806489BF81E0089580E0089580E0089506
:1016C0008F929F92AF92BF92CF92DF92EF92FF9252
:1016D000853608F04BC08090CA009090CB00A09057
:1016E000CC00B090CD00682F70E080E090E00E94C8
:1016F0009E10A50194010E944E1120E030E048ECBC
:1017000052E40E94FB0F6B017C019B01AC01C501FF
:10171000B4010E94890F4B015C0140ED50E00E9432
:1017200021094EEC50E0C701B6010E94210923EDCA
:1017300030E0B501A4018091D0009091D1000E94C9
:10174000B30922ED30E0B701A6018091CE0090915F
:10175000CF000E94B3098091D30084BD8091D00056
:101760009091D1000E945E0A81E001C080E0FF906C
:10177000EF90DF90CF90BF90AF909F908F900895A3
:101780001F920F920FB60F9211242F933F934F93F6
:101790005F936F937F938F939F93AF93BF93EF93D9
:1017A000FF938091C90081110DC08091CE0090916E
:1017B000CF000E945E0A8091D20084BD81E08093B8
:1017C000C9000BC08091D0009091D1000E945E0AA8
:1017D0008091D30084BD1092C9008091D5008130E2
:1017E00099F028F08230E9F0833041F133C02BB317
:1017F00081E090E00090D40002C0880F991F0A9405
:10180000E2F782278BBB26C028B381E090E00090EE
:10181000D40002C0880F991F0A94E2F7822788BB80
:1018200019C025B381E090E00090D40002C0880F79
:10183000991F0A94E2F7822785BB0CC022B381E08E
:1018400090E00090D40002C0880F991F0A94E2F73C
:10185000822782BBFF91EF91BF91AF919F918F91B2
:101860007F916F915F914F913F912F910F900FBE9C
:101870000F901F9018958F929F92AF92BF92CF9228
:10188000DF92EF92FF921F93CF93DF93CDB7DEB736
:1018900027970FB6F894DEBF0FBECDBF6B017C015A
:1018A0002FE632E143E052E40E94F60F18160CF4E2
:1018B00053C02FE632E143E05DE3C701B6010E9469
:1018C000F60F18162CF081E090E09A83898345C0CA
:1018D0002FE632E143E85EE3C701B6010E94F60F4E
:1018E000181634F088E090E09A83898381E035C04F
:1018F0002FE632E143E050E4C701B6010E94F60F43
:10190000181634F080E490E09A83898381E025C042
:101910002FE632E143E051E4C701B6010E94F60F21
:10192000181634F080E091E09A83898381E015C035
:101930002FE632E143E052E4C701B6010E94F60F00
:10194000181634F080E094E09A83898381E005C022
:101950001A82198281E001C080E0882309F475C0F1
:1019600089819A8180349105A1F130F4813091050B
:1019700061F00897E1F063C0811521E09207D9F189
:101980008115944009F449C05AC0A70196016FE639
:1019900072E183E09DE30E94890F2FE632E143E08C
:1019A00059E30E94FB0F0E946D106B8349C0A70191
:1019B00096016FE672E183E89EE30E94890F2FE6AD
:1019C00032E143E85AE30E94FB0F0E946D106B83E3
:1019D00037C0A70196016FE672E183E090E40E94B0
:1019E000890F2FE632E143E05CE30E94FB0F0E9487
:1019F0006D106B8325C0A70196016FE672E183E04D
:101A000091E40E94890F2FE632E143E05DE30E94FA
:101A1000FB0F0E946D106B8313C0A70196016FE648
:101A200072E183E092E40E94890F2FE632E143E005
:101A30005EE30E94FB0F0E946D106B8301C01B824E
:101A40001C821D821E821F8211C080E094E09A8356
:101A500089832FE632E143E052E4C701B6010E94D8
:101A6000FB0F6C837D838E839F831B82CC80DD8004
:101A7000EE80FF80C701B6010E946D10162F70E046
:101A800080E090E00E949E109B01AC01C701B6016E
:101A90000E94890F2FE632E143E052E40E944E118A
:101AA0000E946D10F62E8B8182BF111128C0898192
:101AB0009A8180349105A9F030F48130910559F074
:101AC000089761F017C0811521E0920769F0811530
:101AD000944069F00FC081E883BF0DC082E883BFE6
:101AE0000AC083E883BF07C084E883BF04C085E8D9
:101AF00083BF01C013BE08B600FEFDCF00C185E85C
:101B000083BF07C008B600FEFDCF115088B78160C3
:101B100088BF1111F7CFFF2009F453C06F2D70E07B
:101B200080E090E00E949E104B015C012FE632E1C4
:101B300043E05DE30E94F60F18162CF081E090E080
:101B40009A8389833EC02FE632E143E85EE3C50114
:101B5000B4010E94F60F18162CF088E090E09A83EA
:101B600089832FC02FE632E143E050E4C501B40180
:101B70000E94F60F18162CF080E490E09A83898377
:101B800020C02FE632E143E051E4C501B4010E94D8
:101B9000F60F18162CF080E091E09A83898311C02B
:101BA0002FE632E143E052E4C501B4010E94F60F92
:101BB00018162CF080E094E09A83898302C01A8280
:101BC000198289819A818034910509F445C030F4E5
:101BD0008130910569F0089729F18CC0811521E0C9
:101BE000920709F453C08115944009F469C082C07A
:101BF0006F2D70E080E090E00E949E109B01AC0190
:101C00006FE672E183E09DE30E94890F2FE632E1E7
:101C100043E059E30E94FB0F0E946D1062BF81E810
:101C200083BF6AC06F2D70E080E090E00E949E103C
:101C30009B01AC016FE672E183E89EE30E94890F8D
:101C40002FE632E143E85AE30E94FB0F0E946D1039
:101C500062BF82E883BF50C06F2D70E080E090E0EB
:101C60000E949E109B01AC016FE672E183E090E45C
:101C70000E94890F2FE632E143E05CE30E94FB0FF4
:101C80000E946D1062BF83E883BF36C06F2D70E085
:101C900080E090E00E949E109B01AC016FE672E133
:101CA00083E091E40E94890F2FE632E143E05DE397
:101CB0000E94FB0F0E946D1062BF84E883BF1CC0AE
:101CC0006F2D70E080E090E00E949E109B01AC01BF
:101CD0006FE672E183E092E40E94890F2FE632E121
:101CE00043E05EE30E94FB0F0E946D1062BF85E837
:101CF00083BF02C012BE13BE08B600FEFDCF88B778
:101D0000816088BF13BE27960FB6F894DEBF0FBE62
:101D1000CDBFDF91CF911F91FF90EF90DF90CF90DB
:101D2000BF90AF909F908F900895CF92DF92EF92E7
:101D3000FF926B017C012FE632E143E052E40E9406
:101D4000F60F88234CF4C701B6010E946D10609312
:101D5000D7001092D9000FC02FE632E143E052E4E1
:101D6000C701B6010E94FB0F0E946D106093D9005D
:101D70008FEF8093D70012BE8091D7008CBF89B7B8
:101D8000826089BF1092D6008DE883BFFF90EF90EC
:101D9000DF90CF9008951F920F920FB60F921124EB
:101DA0008F939F938091D900882399F08091D800D8
:101DB0008F5F8093D8009091D8008091D9009813BC
:101DC00011C08091D6008F5F8093D6001092D8000A
:101DD00009C08091D6008F5F8093D60012BE80919B
:101DE000D7008CBF9F918F910F900FBE0F901F90C7
:101DF00018951F920F920FB60F9211242F933F93B5
:101E00004F935F936F937F938F939F93AF93BF9302
:101E1000EF93FF93E091DA00F091DB003097B9F097
:101E20008091D900882379F08091D8008F5F8093CA
:101E3000D8009091D8008091D900981308C00995D6
:101E40001092D80004C009958091D70082BFFF91FD
:101E5000EF91BF91AF919F918F917F916F915F9122
:101E60004F913F912F910F900FBE0F901F9018959B
:101E7000FC011DBC1CBC1BBC1ABC19BC18BC17BC8B
:101E800016BC8EB59181887F892B8EBD2EB594812D
:101E900030E4939FC0011124922F9F7B892B8EBD2C
:101EA0002EB5968130E8939FC0011124922F9F7721
:101EB000892B8EBD9FB580819C7F8370892B8FBDC0
:101EC0008EB590819C70292F30E0220F331F220F96
:101ED000331F220F331F877E282B2EBD89B7938196
:101EE000837C892B21F08281811103C003C080E0B3
:101EF00001C081E089BF8081882311F0843011F412
:101F00008CE08FBD08958CB59DB508951DBC1CBC9B
:101F100008955058BB27AA270E94A10F0C941411B2
:101F20000E94061138F00E940D1120F039F49F3FF5
:101F300019F426F40C9403110EF4E095E7FB0C94CD
:101F4000FD10E92F0E94251158F3BA176207730795
:101F50008407950720F079F4A6F50C9447110EF448
:101F6000E0950B2EBA2FA02D0B01B90190010C01A9
:101F7000CA01A0011124FF27591B99F0593F50F4C1
:101F8000503E68F11A16F040A22F232F342F442719
:101F9000585FF3CF469537952795A795F040539511
:101FA000C9F77EF41F16BA0B620B730B840BBAF0E1
:101FB0009150A1F0FF0FBB1F661F771F881FC2F74C
:101FC0000EC0BA0F621F731F841F48F48795779560
:101FD0006795B795F7959E3F08F0B0CF9395880F1A
:101FE00008F09927EE0F9795879508950E94D910CC
:101FF00008F481E008950E940F100C9414110E94BF
:102000000D1158F00E94061140F029F45F3F29F0AD
:102010000C94FD1051110C9448110C9403110E9462
:10202000251168F39923B1F3552391F3951B550BB3
:10203000BB27AA2762177307840738F09F5F5F4F9B
:10204000220F331F441FAA1FA9F335D00E2E3AF0DA
:10205000E0E832D091505040E695001CCAF72BD0F2
:10206000FE2F29D0660F771F881FBB1F2617370743
:102070004807AB07B0E809F0BB0B802DBF01FF2775
:1020800093585F4F3AF09E3F510578F00C94FD1045
:102090000C9448115F3FE4F3983ED4F3869577950E
:1020A0006795B795F7959F5FC9F7880F911D96952E
:1020B000879597F90895E1E0660F771F881FBB1F8A
:1020C000621773078407BA0720F0621B730B840B37
:1020D000BA0BEE1F88F7E09508950E942D1188F045
:1020E0009F5798F0B92F9927B751B0F0E1F0660FDC
:1020F000771F881F991F1AF0BA95C9F714C0B1301D
:1021000091F00E944711B1E008950C944711672F98
:10211000782F8827B85F39F0B93FCCF3869577954B
:102120006795B395D9F73EF4909580957095619534
:102130007F4F8F4F9F4F0895E89409C097FB3EF45F
:1021400090958095709561957F4F8F4F9F4F992304
:10215000A9F0F92F96E9BB279395F6958795779582
:102160006795B795F111F8CFFAF4BB0F11F460FF42
:102170001BC06F5F7F4F8F4F9F4F16C0882311F09A
:1021800096E911C0772321F09EE8872F762F05C0AE
:10219000662371F096E8862F70E060E02AF09A9549
:1021A000660F771F881FDAF7880F9695879597F93E
:1021B0000895990F0008550FAA0BE0E8FEEF1616D8
:1021C0001706E807F907C0F012161306E407F5072B
:1021D00098F0621B730B840B950B39F40A2661F09F
:1021E000232B242B252B21F408950A2609F4A14042
:1021F000A6958FEF811D811D089597F99F6780E84F
:1022000070E060E008959FEF80EC089500240A9448
:102210001616170618060906089500240A941216C1
:102220001306140605060895092E0394000C11F4F4
:10223000882352F0BB0F40F4BF2B11F460FF04C0A1
:102240006F5F7F4F8F4F9F4F089557FD9058440FFA
:10225000551F59F05F3F71F04795880F97FB991F05
:1022600061F09F3F79F087950895121613061406C2
:10227000551FF2CF4695F1DF08C01616170618064F
:10228000991FF1CF86957105610508940895E8942A
:10229000BB2766277727CB0197F908950E94611124
:1022A0000C9414110E94061138F00E940D1120F0B8
:1022B000952311F00C94FD100C94031111240C942F
:1022C00048110E94251170F3959FC1F3950F50E0BE
:1022D000551F629FF001729FBB27F00DB11D639FD8
:1022E000AA27F00DB11DAA1F649F6627B00DA11D7E
:1022F000661F829F2227B00DA11D621F739FB00D24
:10230000A11D621F839FA00D611D221F749F332793
:10231000A00D611D231F849F600D211D822F762F2C
:102320006A2F11249F5750409AF0F1F088234AF009
:10233000EE0FFF1FBB1F661F771F881F9150504075
:10234000A9F79E3F510580F00C94FD100C944811A4
:102350005F3FE4F3983ED4F3869577956795B795FC
:10236000F795E7959F5FC1F7FE2B880F911D969516
:10237000879597F90895A1E21A2EAA1BBB1BFD01B0
:102380000DC0AA1FBB1FEE1FFF1FA217B307E40754
:10239000F50720F0A21BB30BE40BF50B661F771FAC
:1023A000881F991F1A9469F760957095809590958C
:1023B0009B01AC01BD01CF010895A29FB001B39F65
:1023C000C001A39F700D811D1124911DB29F700D3E
:0C23D000811D1124911D0895F894FFCF89
:1023DC00030203030306030753706565643A303048
:1023EC0025204469723A5300536574204465662E67
:1023FC0020526F742E005269676874004C656674C5
:10240C0000446973742E3A2020202020636D003321
:10241C00300035300030300053706565643A33302D
:0C242C0025204469723A52000506313246
:00000001FF
