:100000000C942A000C944C000C9475000C949E00E7
:100010000C94C7000C94FF000C9436010C94400122
:100020000C947E010C94BC010C94F4010C942C02F1
:100030000C9447000C9447000C9447000C94470024
:100040000C9447000C9447000C9447000C94470014
:100050000C94470011241FBECFE5D8E0DEBFCDBF12
:1000600010E0A0E6B0E0EAECF4E002C005900D92EA
:10007000A036B107D9F720E0A0E6B0E001C01D929C
:10008000A238B207E1F70E9449000C9463020C9475
:10009000000080E090E008951F920F920FB60F923B
:1000A00011242F933F934F935F936F937F938F937D
:1000B0009F93AF93BF93EF93FF93E0916000F09114
:1000C0006100309709F00995FF91EF91BF91AF91D1
:1000D0009F918F917F916F915F914F913F912F9160
:1000E0000F900FBE0F901F9018951F920F920FB692
:1000F0000F9211242F933F934F935F936F937F93AE
:100100008F939F93AF93BF93EF93FF93E091620020
:10011000F0916300309709F00995FF91EF91BF913D
:10012000AF919F918F917F916F915F914F913F918F
:100130002F910F900FBE0F901F9018951F920F9246
:100140000FB60F9211242F933F934F935F936F93AA
:100150007F938F939F93AF93BF93EF93FF93E09120
:100160006400F0916500309709F00995FF91EF91D7
:10017000BF91AF919F918F917F916F915F914F91BF
:100180003F912F910F900FBE0F901F9018951F92C7
:100190000F920FB60F9211242F933F934F935F93BB
:1001A0006F937F938F939F93AF93BF93EF93FF933F
:1001B00080916C0090916D00019690936D008093FA
:1001C0006C00892B59F010926D0010926C00E09138
:1001D0007A00F0917B00309709F00995FF91EF913B
:1001E000BF91AF919F918F917F916F915F914F914F
:1001F0003F912F910F900FBE0F901F9018951F9257
:100200000F920FB60F9211242F933F934F935F934A
:100210006F937F938F939F93AF93BF93EF93FF93CE
:10022000E0E7F0E084819581019695838483892BB2
:1002300061F014BC1092750010927400E09180007F
:10024000F0918100309709F00995FF91EF91BF91EE
:10025000AF919F918F917F916F915F914F913F915E
:100260002F910F900FBE0F901F9018951F920F9215
:100270000FB60F9211240F900FBE0F901F9018957C
:100280001F920F920FB60F9211242F933F934F930B
:100290005F936F937F938F939F93AF93BF93EF93EE
:1002A000FF9380916A0090916B00019690936B0090
:1002B00080936A00892B89F010926B0010926A007B
:1002C000E0917800F0917900309739F080916F00DB
:1002D000882319F010926F000995FF91EF91BF915B
:1002E000AF919F918F917F916F915F914F913F91CE
:1002F0002F910F900FBE0F901F9018951F920F9285
:100300000FB60F9211242F933F934F935F936F93E8
:100310007F938F939F93AF93BF93EF93FF938091BE
:10032000680090916900019690936900809368003D
:10033000892B89F01092690010926800E091780092
:10034000F0917900309739F080916E00882319F090
:1003500010926E000995FF91EF91BF91AF919F911F
:100360008F917F916F915F914F913F912F910F905E
:100370000FBE0F901F9018951F920F920FB60F92FD
:1003800011242F933F934F935F936F937F938F939A
:100390009F93AF93BF93EF93FF93E0E7F0E08281E9
:1003A0009381019693838283892B69F01DBC1CBCC9
:1003B0001092730010927200E0917E00F0917F0025
:1003C000309709F00995FF91EF91BF91AF919F91FF
:1003D0008F917F916F915F914F913F912F910F90EE
:1003E0000FBE0F901F9018951F920F920FB60F928D
:1003F00011242F933F934F935F936F937F938F932A
:100400009F93AF93BF93EF93FF938091660090917A
:10041000670001969093670080936600892B59F0DE
:100420001092670010926600E0917600F0917700DC
:10043000309709F00995FF91EF91BF91AF919F918E
:100440008F917F916F915F914F913F912F910F907D
:100450000FBE0F901F9018951F920F920FB60F921C
:1004600011242F933F934F935F936F937F938F93B9
:100470009F93AF93BF93EF93FF93E0E7F0E080810A
:100480009181019691838083892B61F012BE109235
:10049000710010927000E0917C00F0917D00309727
:1004A00009F00995FF91EF91BF91AF919F918F91C5
:1004B0007F916F915F914F913F912F910F900FBE60
:0A04C0000F901F901895F894FFCFDD
:00000001FF
