:100000000C942A000C94F8010C9421020C944A02DE
:100010000C9447000C9457040C9447000C94470030
:100020000C9447000C9447000C9447000C94470034
:100030000C9447000C9447000C9447000C94470024
:100040000C9447000C9447000C9447000C94470014
:100050000C94470011241FBECFE5D8E0DEBFCDBF12
:1000600010E0A0E6B0E0EEE9FDE002C005900D92E0
:10007000AC36B107D9F720E0ACE6B0E001C01D9284
:10008000AF37B207E1F70E94D3000C94CD060C9471
:1000900000000E94730280E690E00E9457004AE050
:1000A00062E080E690E00E9494000895FFCFEF9216
:1000B000FF921F93CF93DF937C0110E02DC0C12FDF
:1000C000D0E0CE01880F991FC80FD91FCC0FDD1FBC
:1000D000CE0DDF1D698141E088810E94DA006B81CD
:1000E00041E08A810E94DA006D8141E08C810E94AA
:1000F000DA00698140E088810E944F016B8141E014
:100100008A810E944F012D814C816DEC7CEC8CE446
:100110009EE30E94C9031F5F123088F2DF91CF91E6
:100120001F91FF90EF9008951F93CF93DF93009757
:1001300089F1633088F5453688F5142FEC0161307C
:1001400079F018F06230B9F020C0698140E0888110
:100150000E944F016B8140E08A810E944F0115C0CF
:10016000698141E088810E944F016B8140E08A8172
:100170000E944F010AC0698140E088810E944F01BE
:100180006B8141E08A810E944F01812F0E94FB0315
:1001900081E005C080E003C080E001C080E0DF9125
:1001A000CF911F9108950E9449000E94560080E05F
:1001B00090E00895813011F130F08230D1F1833038
:1001C00009F452C00895413059F42AB381E090E017
:1001D00002C0880F991F6A95E2F7822B8ABB0895A7
:1001E00041115CC02AB381E090E002C0880F991FE2
:1001F0006A95E2F7809582238ABB0895413059F4CD
:1002000027B381E090E002C0880F991F6A95E2F75A
:10021000822B87BB0895411141C027B381E090E054
:1002200002C0880F991F6A95E2F78095822387BBE9
:100230000895413059F424B381E090E002C0880F62
:10024000991F6A95E2F7822B84BB0895411126C05D
:1002500024B381E090E002C0880F991F6A95E2F70D
:100260008095822384BB0895413059F421B381E005
:1002700090E002C0880F991F6A95E2F7822B81BB3C
:10028000089541110BC021B381E090E002C0880FB6
:10029000991F6A95E2F78095822381BB089581308A
:1002A00011F130F08230D1F1833009F452C0089559
:1002B000413059F42BB381E090E002C0880F991FC0
:1002C0006A95E2F7822B8BBB089541115CC02BB37A
:1002D00081E090E002C0880F991F6A95E2F780954F
:1002E00082238BBB0895413059F428B381E090E01C
:1002F00002C0880F991F6A95E2F7822B88BB089588
:10030000411141C028B381E090E002C0880F991FDD
:100310006A95E2F78095822388BB0895413059F4AD
:1003200025B381E090E002C0880F991F6A95E2F73B
:10033000822B85BB0895411126C025B381E090E052
:1003400002C0880F991F6A95E2F78095822385BBCA
:100350000895413059F422B381E090E002C0880F43
:10036000991F6A95E2F7822B82BB089541110BC059
:1003700022B381E090E002C0880F991F6A95E2F7EE
:100380008095822382BB0895813089F028F08230E5
:10039000C9F0833011F108952BB381E090E002C0E1
:1003A000880F991F6A95E2F782278BBB089528B3BF
:1003B00081E090E002C0880F991F6A95E2F78227DA
:1003C00088BB089525B381E090E002C0880F991F93
:1003D0006A95E2F7822785BB089522B381E090E019
:1003E00002C0880F991F6A95E2F7822782BB0895A1
:1003F0001F920F920FB60F9211242F933F934F939A
:100400005F936F937F938F939F93AF93BF93EF937C
:10041000FF93E0916C00F0916D00309709F0099521
:10042000FF91EF91BF91AF919F918F917F916F91CC
:100430005F914F913F912F910F900FBE0F901F90A2
:1004400018951F920F920FB60F9211242F933F937E
:100450004F935F936F937F938F939F93AF93BF93CC
:10046000EF93FF93E0916E00F0916F00309709F0E9
:100470000995FF91EF91BF91AF919F918F917F91DE
:100480006F915F914F913F912F910F900FBE0F9001
:100490001F9018951F920F920FB60F9211242F9351
:1004A0003F934F935F936F937F938F939F93AF93FC
:1004B000BF93EF93FF93E0917000F091710030973C
:1004C00009F00995FF91EF91BF91AF919F918F91A5
:1004D0007F916F915F914F913F912F910F900FBE40
:1004E0000F901F9018958FB780688FBF0895CF9297
:1004F000DF92EF92FF92CF93DF936B017C01EA01D1
:100500002FE632E143E052E40E94080518160CF48D
:1005100073C02FE632E143E05DE3C701B6010E94FC
:10052000080518162CF081E090E09983888365C057
:100530002FE632E143E85EE3C701B6010E940805F9
:10054000181634F088E090E09983888381E055C0E4
:100550002FE632E143E85FE3C701B6010E940805D8
:10056000181634F080E290E09983888381E045C0DA
:100570002FE632E143E050E4C701B6010E940805CE
:10058000181634F080E490E09983888381E035C0C8
:100590002FE632E143E850E4C701B6010E940805A6
:1005A000181634F080E890E09983888381E025C0B4
:1005B0002FE632E143E051E4C701B6010E9408058D
:1005C000181634F080E091E09983888381E015C0AB
:1005D0002FE632E143E052E4C701B6010E9408056C
:1005E000181634F080E094E09983888381E005C098
:1005F0001982188281E001C080E0DF91CF91FF90E5
:10060000EF90DF90CF900895CF93DF93EB0180348C
:10061000910509F44AC050F48830910531F18032D7
:10062000910599F1019709F080C00FC0811561E033
:10063000960709F45AC0811564E0960709F465C06D
:100640008038910509F071C040C06FE672E183E027
:100650009DE30E949B042FE632E143E059E30E94B0
:100660000D050E947F05688361C06FE672E183E833
:100670009EE30E949B042FE632E143E85AE30E9486
:100680000D050E947F05688351C06FE672E183E823
:100690009FE30E949B042FE632E143E85BE30E9464
:1006A0000D050E947F05688341C06FE672E183E01B
:1006B00090E40E949B042FE632E143E05CE30E9459
:1006C0000D050E947F05688331C06FE672E183E803
:1006D00090E40E949B042FE632E143E85CE30E9431
:1006E0000D050E947F05688321C06FE672E183E0FB
:1006F00091E40E949B042FE632E143E05DE30E9417
:100700000D050E947F05688311C06FE672E183E0EA
:1007100092E40E949B042FE632E143E05EE30E94F4
:100720000D050E947F05688301C01882DF91CF917B
:10073000089580349105F9F048F488309105A9F0C6
:1007400080329105A9F0019711F50CC0811521E0C7
:100750009207B9F0811524E09207B1F08038910535
:10076000B1F40CC081E885BD089582E885BD089587
:1007700083E885BD089584E885BD089585E885BD35
:10078000089586E885BD089587E885BD089515BC60
:100790000895CF92DF92EF92FF92CF93DF936B0198
:1007A0007C01C42FD22F40937E0020937D0041E036
:1007B000622F8C2F0E94DA0040E06D2F8C2F0E9458
:1007C0004F01A701960160E070E080E89FE30E947E
:1007D0000D05609378007093790080937A00909370
:1007E0007B0089B7806489BFDF91CF91FF90EF9044
:1007F000DF90CF9008958F929F92AF92BF92CF9249
:10080000DF92EF92FF928090780090907900A09014
:100810007A00B0907B00682F70E080E090E00E944A
:10082000B005A50194010E94600620E030E048EC8C
:1008300052E40E940D056B017C019B01AC01C501D6
:10084000B4010E949B044B015C0143E750E0C701E7
:10085000B6010E94770245E750E0C501B4010E944D
:100860007702A701960167E770E08091730090918D
:1008700074000E940403A50194016CE770E080916C
:100880007500909176000E9404038091770084BDEA
:1008900080917300909174000E949903FF90EF90F3
:1008A000DF90CF90BF90AF909F908F9008951F9250
:1008B0000F920FB60F9211242F933F934F935F9394
:1008C0006F937F938F939F93AF93BF93EF93FF9318
:1008D0008091720081110DC0809175009091760019
:1008E0000E94990380917C0084BD81E08093720016
:1008F0000BC080917300909174000E9499038091C5
:10090000770084BD1092720060917D0080917E001E
:100910000E94C401FF91EF91BF91AF919F918F9180
:100920007F916F915F914F913F912F910F900FBEEB
:100930000F901F9018955058BB27AA270E94B30408
:100940000C9426060E94180638F00E941F0620F01C
:1009500039F49F3F19F426F40C9415060EF4E09533
:10096000E7FB0C940F06E92F0E94370658F3BA17DD
:10097000620773078407950720F079F4A6F50C94B5
:1009800059060EF4E0950B2EBA2FA02D0B01B901DC
:1009900090010C01CA01A0011124FF27591B99F0F5
:1009A000593F50F4503E68F11A16F040A22F232F01
:1009B000342F4427585FF3CF469537952795A79551
:1009C000F0405395C9F77EF41F16BA0B620B730BF8
:1009D000840BBAF09150A1F0FF0FBB1F661F771F69
:1009E000881FC2F70EC0BA0F621F731F841F48F41E
:1009F000879577956795B795F7959E3F08F0B0CFA7
:100A00009395880F08F09927EE0F9795879508958D
:100A10000E94EB0508F481E008950E9421050C94E2
:100A200026060E941F0658F00E94180640F029F47E
:100A30005F3F29F00C940F0651110C945A060C9448
:100A400015060E94370668F39923B1F3552391F3F5
:100A5000951B550BBB27AA2762177307840738F02D
:100A60009F5F5F4F220F331F441FAA1FA9F335D08A
:100A70000E2E3AF0E0E832D091505040E695001C3E
:100A8000CAF72BD0FE2F29D0660F771F881FBB1FF8
:100A9000261737074807AB07B0E809F0BB0B802DD6
:100AA000BF01FF2793585F4F3AF09E3F510578F002
:100AB0000C940F060C945A065F3FE4F3983ED4F36F
:100AC000869577956795B795F7959F5FC9F7880FD6
:100AD000911D9695879597F90895E1E0660F771F28
:100AE000881FBB1F621773078407BA0720F0621BB9
:100AF000730B840BBA0BEE1F88F7E09508950E94E4
:100B00003F0688F09F5798F0B92F9927B751B0F05A
:100B1000E1F0660F771F881F991F1AF0BA95C9F781
:100B200014C0B13091F00E945906B1E008950C94C0
:100B30005906672F782F8827B85F39F0B93FCCF373
:100B4000869577956795B395D9F73EF490958095FE
:100B5000709561957F4F8F4F9F4F0895E89409C01E
:100B600097FB3EF490958095709561957F4F8F4FE0
:100B70009F4F9923A9F0F92F96E9BB279395F695F6
:100B8000879577956795B795F111F8CFFAF4BB0F74
:100B900011F460FF1BC06F5F7F4F8F4F9F4F16C0D8
:100BA000882311F096E911C0772321F09EE8872F62
:100BB000762F05C0662371F096E8862F70E060E01E
:100BC0002AF09A95660F771F881FDAF7880F969597
:100BD000879597F90895990F0008550FAA0BE0E83B
:100BE000FEEF16161706E807F907C0F012161306EF
:100BF000E407F50798F0621B730B840B950B39F42F
:100C00000A2661F0232B242B252B21F408950A2694
:100C100009F4A140A6958FEF811D811D089597F9D4
:100C20009F6780E870E060E008959FEF80EC089592
:100C300000240A94161617061806090608950024BB
:100C40000A9412161306140605060895092E039435
:100C5000000C11F4882352F0BB0F40F4BF2B11F4A9
:100C600060FF04C06F5F7F4F8F4F9F4F089557FD08
:100C70009058440F551F59F05F3F71F04795880F0A
:100C800097FB991F61F09F3F79F0879508951216A1
:100C900013061406551FF2CF4695F1DF08C016164D
:100CA00017061806991FF1CF8695710561050894FE
:100CB0000895E894BB2766277727CB0197F9089515
:100CC0000E9473060C9426060E94180638F00E94B3
:100CD0001F0620F0952311F00C940F060C941506B6
:100CE00011240C945A060E94370670F3959FC1F3A5
:100CF000950F50E0551F629FF001729FBB27F00DCA
:100D0000B11D639FAA27F00DB11DAA1F649F66271E
:100D1000B00DA11D661F829F2227B00DA11D621F6D
:100D2000739FB00DA11D621F839FA00D611D221F27
:100D3000749F3327A00D611D231F849F600D211D0B
:100D4000822F762F6A2F11249F5750409AF0F1F08E
:100D500088234AF0EE0FFF1FBB1F661F771F881FF7
:100D600091505040A9F79E3F510580F00C940F061A
:100D70000C945A065F3FE4F3983ED4F3869577953A
:100D80006795B795F795E7959F5FC1F7FE2B880F9D
:0E0D9000911D9695879597F90895F894FFCFD9
:0C0D9E000302030303040306030703051C
:00000001FF
